{
  "contractName": "Staking",
  "abi": [
    {
      "constant": false,
      "inputs": [],
      "name": "renounceOwnership",
      "outputs": [],
      "payable": false,
      "stateMutability": "nonpayable",
      "type": "function"
    },
    {
      "constant": true,
      "inputs": [],
      "name": "owner",
      "outputs": [
        {
          "name": "",
          "type": "address"
        }
      ],
      "payable": false,
      "stateMutability": "view",
      "type": "function"
    },
    {
      "constant": true,
      "inputs": [],
      "name": "isOwner",
      "outputs": [
        {
          "name": "",
          "type": "bool"
        }
      ],
      "payable": false,
      "stateMutability": "view",
      "type": "function"
    },
    {
      "constant": false,
      "inputs": [
        {
          "name": "newOwner",
          "type": "address"
        }
      ],
      "name": "transferOwnership",
      "outputs": [],
      "payable": false,
      "stateMutability": "nonpayable",
      "type": "function"
    },
    {
      "inputs": [],
      "payable": false,
      "stateMutability": "nonpayable",
      "type": "constructor"
    },
    {
      "anonymous": false,
      "inputs": [
        {
          "indexed": false,
          "name": "newPot",
          "type": "uint256"
        }
      ],
      "name": "PotUpdated",
      "type": "event"
    },
    {
      "anonymous": false,
      "inputs": [],
      "name": "PotExhausted",
      "type": "event"
    },
    {
      "anonymous": false,
      "inputs": [
        {
          "indexed": false,
          "name": "stakeAmount",
          "type": "uint256"
        },
        {
          "indexed": false,
          "name": "from",
          "type": "address"
        }
      ],
      "name": "NewStake",
      "type": "event"
    },
    {
      "anonymous": false,
      "inputs": [
        {
          "indexed": false,
          "name": "stakeID",
          "type": "uint256"
        },
        {
          "indexed": false,
          "name": "amount",
          "type": "uint256"
        }
      ],
      "name": "StakeWithdraw",
      "type": "event"
    },
    {
      "anonymous": false,
      "inputs": [
        {
          "indexed": false,
          "name": "account",
          "type": "address"
        },
        {
          "indexed": false,
          "name": "reward",
          "type": "uint256"
        }
      ],
      "name": "referralRewardSent",
      "type": "event"
    },
    {
      "anonymous": false,
      "inputs": [
        {
          "indexed": false,
          "name": "account",
          "type": "address"
        }
      ],
      "name": "rewardWithdrawed",
      "type": "event"
    },
    {
      "anonymous": false,
      "inputs": [],
      "name": "machineStopped",
      "type": "event"
    },
    {
      "anonymous": false,
      "inputs": [],
      "name": "subscriptionStopped",
      "type": "event"
    },
    {
      "anonymous": false,
      "inputs": [
        {
          "indexed": true,
          "name": "previousOwner",
          "type": "address"
        },
        {
          "indexed": true,
          "name": "newOwner",
          "type": "address"
        }
      ],
      "name": "OwnershipTransferred",
      "type": "event"
    },
    {
      "constant": false,
      "inputs": [
        {
          "name": "_tokenAddress",
          "type": "address"
        }
      ],
      "name": "setTokenAddress",
      "outputs": [],
      "payable": false,
      "stateMutability": "nonpayable",
      "type": "function"
    },
    {
      "constant": true,
      "inputs": [],
      "name": "isTokenSet",
      "outputs": [
        {
          "name": "",
          "type": "bool"
        }
      ],
      "payable": false,
      "stateMutability": "view",
      "type": "function"
    },
    {
      "constant": true,
      "inputs": [],
      "name": "getTokenAddress",
      "outputs": [
        {
          "name": "",
          "type": "address"
        }
      ],
      "payable": false,
      "stateMutability": "view",
      "type": "function"
    },
    {
      "constant": false,
      "inputs": [
        {
          "name": "_amount",
          "type": "uint256"
        }
      ],
      "name": "depositPot",
      "outputs": [],
      "payable": false,
      "stateMutability": "nonpayable",
      "type": "function"
    },
    {
      "constant": false,
      "inputs": [
        {
          "name": "_amount",
          "type": "uint256"
        }
      ],
      "name": "returnPot",
      "outputs": [],
      "payable": false,
      "stateMutability": "nonpayable",
      "type": "function"
    },
    {
      "constant": false,
      "inputs": [],
      "name": "finalShutdown",
      "outputs": [],
      "payable": false,
      "stateMutability": "nonpayable",
      "type": "function"
    },
    {
      "constant": true,
      "inputs": [],
      "name": "getAllAccount",
      "outputs": [
        {
          "name": "",
          "type": "address[]"
        }
      ],
      "payable": false,
      "stateMutability": "view",
      "type": "function"
    },
    {
      "constant": true,
      "inputs": [],
      "name": "getPotentialWithdrawAmount",
      "outputs": [
        {
          "name": "",
          "type": "uint256"
        }
      ],
      "payable": false,
      "stateMutability": "view",
      "type": "function"
    },
    {
      "constant": false,
      "inputs": [
        {
          "name": "_amount",
          "type": "uint256"
        },
        {
          "name": "_referralAddress",
          "type": "address"
        }
      ],
      "name": "stakeToken",
      "outputs": [],
      "payable": false,
      "stateMutability": "nonpayable",
      "type": "function"
    },
    {
      "constant": false,
      "inputs": [
        {
          "name": "_stakeID",
          "type": "uint256"
        }
      ],
      "name": "returnTokens",
      "outputs": [
        {
          "name": "",
          "type": "bool"
        }
      ],
      "payable": false,
      "stateMutability": "nonpayable",
      "type": "function"
    },
    {
      "constant": false,
      "inputs": [
        {
          "name": "_stakeID",
          "type": "uint256"
        }
      ],
      "name": "withdrawReward",
      "outputs": [
        {
          "name": "",
          "type": "bool"
        }
      ],
      "payable": false,
      "stateMutability": "nonpayable",
      "type": "function"
    },
    {
      "constant": false,
      "inputs": [],
      "name": "withdrawReferralReward",
      "outputs": [
        {
          "name": "",
          "type": "bool"
        }
      ],
      "payable": false,
      "stateMutability": "nonpayable",
      "type": "function"
    },
    {
      "constant": false,
      "inputs": [
        {
          "name": "_amount",
          "type": "uint256"
        }
      ],
      "name": "withdrawFromPot",
      "outputs": [
        {
          "name": "",
          "type": "bool"
        }
      ],
      "payable": false,
      "stateMutability": "nonpayable",
      "type": "function"
    },
    {
      "constant": true,
      "inputs": [
        {
          "name": "_stakeID",
          "type": "uint256"
        }
      ],
      "name": "getCurrentStakeAmount",
      "outputs": [
        {
          "name": "",
          "type": "uint256"
        }
      ],
      "payable": false,
      "stateMutability": "view",
      "type": "function"
    },
    {
      "constant": true,
      "inputs": [],
      "name": "getTotalStakeAmount",
      "outputs": [
        {
          "name": "",
          "type": "uint256"
        }
      ],
      "payable": false,
      "stateMutability": "view",
      "type": "function"
    },
    {
      "constant": true,
      "inputs": [
        {
          "name": "_stakeID",
          "type": "uint256"
        }
      ],
      "name": "getStakeInfo",
      "outputs": [
        {
          "name": "",
          "type": "uint256"
        },
        {
          "name": "",
          "type": "bool"
        },
        {
          "name": "",
          "type": "uint256"
        },
        {
          "name": "",
          "type": "address"
        },
        {
          "name": "",
          "type": "uint256"
        },
        {
          "name": "",
          "type": "uint256"
        }
      ],
      "payable": false,
      "stateMutability": "view",
      "type": "function"
    },
    {
      "constant": true,
      "inputs": [],
      "name": "getCurrentPot",
      "outputs": [
        {
          "name": "",
          "type": "uint256"
        }
      ],
      "payable": false,
      "stateMutability": "view",
      "type": "function"
    },
    {
      "constant": true,
      "inputs": [],
      "name": "getStakeCount",
      "outputs": [
        {
          "name": "",
          "type": "uint256"
        }
      ],
      "payable": false,
      "stateMutability": "view",
      "type": "function"
    },
    {
      "constant": true,
      "inputs": [],
      "name": "getActiveStakeCount",
      "outputs": [
        {
          "name": "",
          "type": "uint256"
        }
      ],
      "payable": false,
      "stateMutability": "view",
      "type": "function"
    },
    {
      "constant": true,
      "inputs": [],
      "name": "getReferralCount",
      "outputs": [
        {
          "name": "",
          "type": "uint256"
        }
      ],
      "payable": false,
      "stateMutability": "view",
      "type": "function"
    },
    {
      "constant": true,
      "inputs": [],
      "name": "getAccountReferral",
      "outputs": [
        {
          "name": "",
          "type": "address[]"
        }
      ],
      "payable": false,
      "stateMutability": "view",
      "type": "function"
    },
    {
      "constant": true,
      "inputs": [
        {
          "name": "_stakeID",
          "type": "uint256"
        }
      ],
      "name": "getAlreadyWithdrawedAmount",
      "outputs": [
        {
          "name": "",
          "type": "uint256"
        }
      ],
      "payable": false,
      "stateMutability": "view",
      "type": "function"
    },
    {
      "constant": true,
      "inputs": [],
      "name": "hasReferral",
      "outputs": [
        {
          "name": "",
          "type": "bool"
        }
      ],
      "payable": false,
      "stateMutability": "view",
      "type": "function"
    },
    {
      "constant": true,
      "inputs": [],
      "name": "getMyReferral",
      "outputs": [
        {
          "name": "",
          "type": "address"
        }
      ],
      "payable": false,
      "stateMutability": "view",
      "type": "function"
    },
    {
      "constant": true,
      "inputs": [],
      "name": "getCurrentReferrals",
      "outputs": [
        {
          "name": "",
          "type": "address[]"
        }
      ],
      "payable": false,
      "stateMutability": "view",
      "type": "function"
    },
    {
      "constant": true,
      "inputs": [
        {
          "name": "customer",
          "type": "address"
        }
      ],
      "name": "calculateRewardReferral",
      "outputs": [
        {
          "name": "",
          "type": "uint256"
        }
      ],
      "payable": false,
      "stateMutability": "view",
      "type": "function"
    },
    {
      "constant": true,
      "inputs": [],
      "name": "calculateTotalRewardReferral",
      "outputs": [
        {
          "name": "",
          "type": "uint256"
        }
      ],
      "payable": false,
      "stateMutability": "view",
      "type": "function"
    },
    {
      "constant": true,
      "inputs": [
        {
          "name": "_account",
          "type": "address"
        }
      ],
      "name": "calculateTotalRewardReferral",
      "outputs": [
        {
          "name": "",
          "type": "uint256"
        }
      ],
      "payable": false,
      "stateMutability": "view",
      "type": "function"
    },
    {
      "constant": true,
      "inputs": [
        {
          "name": "customer",
          "type": "address"
        }
      ],
      "name": "getLowestStake",
      "outputs": [
        {
          "name": "",
          "type": "uint256"
        },
        {
          "name": "",
          "type": "uint256"
        }
      ],
      "payable": false,
      "stateMutability": "view",
      "type": "function"
    },
    {
      "constant": true,
      "inputs": [
        {
          "name": "_stakeID",
          "type": "uint256"
        }
      ],
      "name": "calculateRewardToWithdraw",
      "outputs": [
        {
          "name": "",
          "type": "uint256"
        }
      ],
      "payable": false,
      "stateMutability": "view",
      "type": "function"
    },
    {
      "constant": true,
      "inputs": [
        {
          "name": "_stakeID",
          "type": "uint256"
        }
      ],
      "name": "calculateCompoundInterest",
      "outputs": [
        {
          "name": "",
          "type": "uint256"
        }
      ],
      "payable": false,
      "stateMutability": "view",
      "type": "function"
    },
    {
      "constant": true,
      "inputs": [
        {
          "name": "_stakeID",
          "type": "uint256"
        }
      ],
      "name": "calculatePeriods",
      "outputs": [
        {
          "name": "",
          "type": "uint256"
        }
      ],
      "payable": false,
      "stateMutability": "view",
      "type": "function"
    },
    {
      "constant": true,
      "inputs": [
        {
          "name": "_account",
          "type": "address"
        },
        {
          "name": "_stakeID",
          "type": "uint256"
        }
      ],
      "name": "calculateAccountStakePeriods",
      "outputs": [
        {
          "name": "",
          "type": "uint256"
        }
      ],
      "payable": false,
      "stateMutability": "view",
      "type": "function"
    },
    {
      "constant": true,
      "inputs": [],
      "name": "getMachineState",
      "outputs": [
        {
          "name": "",
          "type": "uint256"
        }
      ],
      "payable": false,
      "stateMutability": "view",
      "type": "function"
    },
    {
      "constant": true,
      "inputs": [],
      "name": "isSubscriptionEnded",
      "outputs": [
        {
          "name": "",
          "type": "bool"
        }
      ],
      "payable": false,
      "stateMutability": "view",
      "type": "function"
    },
    {
      "constant": true,
      "inputs": [],
      "name": "isMachineStopped",
      "outputs": [
        {
          "name": "",
          "type": "bool"
        }
      ],
      "payable": false,
      "stateMutability": "view",
      "type": "function"
    },
    {
      "constant": true,
      "inputs": [],
      "name": "getOwner",
      "outputs": [
        {
          "name": "",
          "type": "address"
        }
      ],
      "payable": false,
      "stateMutability": "view",
      "type": "function"
    }
  ],
  "bytecode": "0x60806040523480156200001157600080fd5b50620000226200014360201b60201c565b6000806101000a81548173ffffffffffffffffffffffffffffffffffffffff021916908373ffffffffffffffffffffffffffffffffffffffff1602179055506000809054906101000a900473ffffffffffffffffffffffffffffffffffffffff1673ffffffffffffffffffffffffffffffffffffffff16600073ffffffffffffffffffffffffffffffffffffffff167f8be0079c531659141344cd1fd0a4f28419497f9722a3daafe3b4186f6b6457e060405160405180910390a36001808190555060006005819055506012600a0a611388026006819055506000600360006101000a81548173ffffffffffffffffffffffffffffffffffffffff021916908373ffffffffffffffffffffffffffffffffffffffff1602179055506200014b565b600033905090565b61531a806200015b6000396000f3fe608060405234801561001057600080fd5b50600436106102535760003560e01c80637ee1eec8116101465780639ee7138c116100c3578063d953db9e11610087578063d953db9e14610a65578063e292fb9614610aa7578063e7eed1f714610ac5578063ea63f5c914610ae3578063ebe70dee14610b25578063f2fde38b14610b7d57610253565b80639ee7138c1461097f578063b513bf5d146109a1578063b6b85243146109bf578063c1a62abd146109ed578063d33ddce414610a1b57610253565b806392faf9ff1161010a57806392faf9ff146108165780639848970a146108585780639a38f0f4146108b05780639dc5368d146108d25780639ee306001461093157610253565b80637ee1eec814610714578063893d20e81461071e5780638da5cb5b146107685780638f32d59b146107b257806392898bc4146107d457610253565b80633743bf9c116101d45780634fe30970116101985780634fe309701461062557806351e7630d14610647578063523a3f08146106655780636e225934146106ab578063715018a61461070a57610253565b80633743bf9c146104a15780633ae1786f146105005780634347e7d3146105465780634ce1cf0c146105645780634d86e99a146105c657610253565b8063181187871161021b57806318118787146103dd5780631f7275e9146103ff57806326a4e8d2146104215780632e4ab48a14610465578063314982491461048357610253565b806306be964214610258578063098134821461029a57806310fe9ae81461032f578063128e1af01461037957806314c2a1bc146103bf575b600080fd5b6102846004803603602081101561026e57600080fd5b8101908080359060200190929190505050610bc1565b6040518082815260200191505060405180910390f35b6102c6600480360360208110156102b057600080fd5b8101908080359060200190929190505050610c26565b60405180878152602001861515151581526020018581526020018473ffffffffffffffffffffffffffffffffffffffff1673ffffffffffffffffffffffffffffffffffffffff168152602001838152602001828152602001965050505050505060405180910390f35b610337610d2a565b604051808273ffffffffffffffffffffffffffffffffffffffff1673ffffffffffffffffffffffffffffffffffffffff16815260200191505060405180910390f35b6103a56004803603602081101561038f57600080fd5b8101908080359060200190929190505050610d54565b604051808215151515815260200191505060405180910390f35b6103c7610e49565b6040518082815260200191505060405180910390f35b6103e5611084565b604051808215151515815260200191505060405180910390f35b610407611593565b604051808215151515815260200191505060405180910390f35b6104636004803603602081101561043757600080fd5b81019080803573ffffffffffffffffffffffffffffffffffffffff1690602001909291905050506115b0565b005b61046d61172f565b6040518082815260200191505060405180910390f35b61048b611779565b6040518082815260200191505060405180910390f35b6104a961189f565b6040518080602001828103825283818151815260200191508051906020019060200280838360005b838110156104ec5780820151818401526020810190506104d1565b505050509050019250505060405180910390f35b61052c6004803603602081101561051657600080fd5b81019080803590602001909291905050506118e4565b604051808215151515815260200191505060405180910390f35b61054e611d75565b6040518082815260200191505060405180910390f35b6105b06004803603604081101561057a57600080fd5b81019080803573ffffffffffffffffffffffffffffffffffffffff16906020019092919080359060200190929190505050611dbf565b6040518082815260200191505060405180910390f35b6105ce611eb2565b6040518080602001828103825283818151815260200191508051906020019060200280838360005b838110156106115780820151818401526020810190506105f6565b505050509050019250505060405180910390f35b61062d611f7d565b604051808215151515815260200191505060405180910390f35b61064f6120c8565b6040518082815260200191505060405180910390f35b6106916004803603602081101561067b57600080fd5b81019080803590602001909291905050506121ad565b604051808215151515815260200191505060405180910390f35b6106ed600480360360208110156106c157600080fd5b81019080803573ffffffffffffffffffffffffffffffffffffffff16906020019092919050505061263f565b604051808381526020018281526020019250505060405180910390f35b610712612825565b005b61071c61295e565b005b610726612bd3565b604051808273ffffffffffffffffffffffffffffffffffffffff1673ffffffffffffffffffffffffffffffffffffffff16815260200191505060405180910390f35b610770612be2565b604051808273ffffffffffffffffffffffffffffffffffffffff1673ffffffffffffffffffffffffffffffffffffffff16815260200191505060405180910390f35b6107ba612c0b565b604051808215151515815260200191505060405180910390f35b610800600480360360208110156107ea57600080fd5b8101908080359060200190929190505050612c69565b6040518082815260200191505060405180910390f35b6108426004803603602081101561082c57600080fd5b8101908080359060200190929190505050612d9f565b6040518082815260200191505060405180910390f35b61089a6004803603602081101561086e57600080fd5b81019080803573ffffffffffffffffffffffffffffffffffffffff169060200190929190505050612e91565b6040518082815260200191505060405180910390f35b6108b8612f95565b604051808215151515815260200191505060405180910390f35b6108da612fc3565b6040518080602001828103825283818151815260200191508051906020019060200280838360005b8381101561091d578082015181840152602081019050610902565b505050509050019250505060405180910390f35b61097d6004803603604081101561094757600080fd5b8101908080359060200190929190803573ffffffffffffffffffffffffffffffffffffffff1690602001909291905050506130cb565b005b6109876136c2565b604051808215151515815260200191505060405180910390f35b6109a961372b565b6040518082815260200191505060405180910390f35b6109eb600480360360208110156109d557600080fd5b810190808035906020019092919050505061382d565b005b610a1960048036036020811015610a0357600080fd5b8101908080359060200190929190505050613c1c565b005b610a23613fb4565b604051808273ffffffffffffffffffffffffffffffffffffffff1673ffffffffffffffffffffffffffffffffffffffff16815260200191505060405180910390f35b610a9160048036036020811015610a7b57600080fd5b8101908080359060200190929190505050614075565b6040518082815260200191505060405180910390f35b610aaf6141a4565b6040518082815260200191505060405180910390f35b610acd6141ae565b6040518082815260200191505060405180910390f35b610b0f60048036036020811015610af957600080fd5b81019080803590602001909291905050506141b8565b6040518082815260200191505060405180910390f35b610b6760048036036020811015610b3b57600080fd5b81019080803573ffffffffffffffffffffffffffffffffffffffff1690602001909291905050506142e1565b6040518082815260200191505060405180910390f35b610bbf60048036036020811015610b9357600080fd5b81019080803573ffffffffffffffffffffffffffffffffffffffff1690602001909291905050506143e4565b005b6000600260003373ffffffffffffffffffffffffffffffffffffffff1673ffffffffffffffffffffffffffffffffffffffff1681526020019081526020016000208281548110610c0d57fe5b9060005260206000209060040201600301549050919050565b600080600080600080610c3761518c565b600260003373ffffffffffffffffffffffffffffffffffffffff1673ffffffffffffffffffffffffffffffffffffffff1681526020019081526020016000208881548110610c8157fe5b906000526020600020906004020160405180608001604052908160008201548152602001600182015481526020016002820160009054906101000a900460ff1615151515815260200160038201548152505090506000610ce089614075565b90506000610cf1836000015161446a565b90506000610cfd613fb4565b90508360000151846040015185602001518386869950995099509950995099505050505091939550919395565b6000600360009054906101000a900473ffffffffffffffffffffffffffffffffffffffff16905090565b60006001806000828254019250508190555060006001549050600554831115610dac577f67ed6f55aeca4bd969e4caf8ffe6d777edf0434bab6b87d04490ba3b9c9926b860405160405180910390a160009150610dcc565b610dc18360055461449f90919063ffffffff16565b600581905550600191505b6001548114610e43576040517f08c379a000000000000000000000000000000000000000000000000000000000815260040180806020018281038252601f8152602001807f5265656e7472616e637947756172643a207265656e7472616e742063616c6c0081525060200191505060405180910390fd5b50919050565b60008073ffffffffffffffffffffffffffffffffffffffff16600360009054906101000a900473ffffffffffffffffffffffffffffffffffffffff1673ffffffffffffffffffffffffffffffffffffffff161415610f0f576040517f08c379a000000000000000000000000000000000000000000000000000000000815260040180806020018281038252600f8152602001807f4e6f20636f6e747261637420736574000000000000000000000000000000000081525060200191505060405180910390fd5b6060600260003373ffffffffffffffffffffffffffffffffffffffff1673ffffffffffffffffffffffffffffffffffffffff168152602001908152602001600020805480602002602001604051908101604052809291908181526020016000905b82821015610fdb578382906000526020600020906004020160405180608001604052908160008201548152602001600182015481526020016002820160009054906101000a900460ff1615151515815260200160038201548152505081526020019060010190610f70565b5050505090506000600260003373ffffffffffffffffffffffffffffffffffffffff1673ffffffffffffffffffffffffffffffffffffffff1681526020019081526020016000208054905090506000809050600080600090505b838110156110795784818151811061104957fe5b602002602001015160000151915061106a82846144e990919063ffffffff16565b92508080600101915050611035565b508194505050505090565b600060018060008282540192505081905550600060015490506000600960003373ffffffffffffffffffffffffffffffffffffffff1673ffffffffffffffffffffffffffffffffffffffff168152602001908152602001600020805490509050600080905060008090505b8281101561123c576000600960003373ffffffffffffffffffffffffffffffffffffffff1673ffffffffffffffffffffffffffffffffffffffff168152602001908152602001600020828154811061114357fe5b9060005260206000200160009054906101000a900473ffffffffffffffffffffffffffffffffffffffff169050600061117b826142e1565b905061119081856144e990919063ffffffff16565b93506111e781600a60008573ffffffffffffffffffffffffffffffffffffffff1673ffffffffffffffffffffffffffffffffffffffff168152602001908152602001600020600101546144e990919063ffffffff16565b600a60008473ffffffffffffffffffffffffffffffffffffffff1673ffffffffffffffffffffffffffffffffffffffff16815260200190815260200160002060010181905550505080806001019150506110ef565b5061124681614571565b6112b8576040517f08c379a00000000000000000000000000000000000000000000000000000000081526004018080602001828103825260158152602001807f4d616368696e65206c696d69742072656163686564000000000000000000000081525060200191505060405180910390fd5b600554811115611330576040517f08c379a000000000000000000000000000000000000000000000000000000000815260040180806020018281038252600d8152602001807f506f74206578686175737465640000000000000000000000000000000000000081525060200191505060405180910390fd5b6113458160055461449f90919063ffffffff16565b600581905550600460009054906101000a900473ffffffffffffffffffffffffffffffffffffffff1673ffffffffffffffffffffffffffffffffffffffff1663a9059cbb33836040518363ffffffff1660e01b8152600401808373ffffffffffffffffffffffffffffffffffffffff1673ffffffffffffffffffffffffffffffffffffffff16815260200182815260200192505050602060405180830381600087803b1580156113f457600080fd5b505af1158015611408573d6000803e3d6000fd5b505050506040513d602081101561141e57600080fd5b8101908080519060200190929190505050156114a4577f61d4848e7db08e721dc597a2b0071f398c6a28b3715466955c21c7b5108d6d5c3382604051808373ffffffffffffffffffffffffffffffffffffffff1673ffffffffffffffffffffffffffffffffffffffff1681526020018281526020019250505060405180910390a1611512565b6040517f08c379a00000000000000000000000000000000000000000000000000000000081526004018080602001828103825260188152602001807f556e61626c6520746f207472616e736665722066756e6473000000000000000081525060200191505060405180910390fd5b600193505050600154811461158f576040517f08c379a000000000000000000000000000000000000000000000000000000000815260040180806020018281038252601f8152602001807f5265656e7472616e637947756172643a207265656e7472616e742063616c6c0081525060200191505060405180910390fd5b5090565b60008060065411156115a857600190506115ad565b600090505b90565b6115b8612c0b565b61162a576040517f08c379a00000000000000000000000000000000000000000000000000000000081526004018080602001828103825260208152602001807f4f776e61626c653a2063616c6c6572206973206e6f7420746865206f776e657281525060200191505060405180910390fd5b611633816145ab565b611688576040517f08c379a000000000000000000000000000000000000000000000000000000000815260040180806020018281038252602881526020018061525b6028913960400191505060405180910390fd5b80600360006101000a81548173ffffffffffffffffffffffffffffffffffffffff021916908373ffffffffffffffffffffffffffffffffffffffff160217905550600360009054906101000a900473ffffffffffffffffffffffffffffffffffffffff16600460006101000a81548173ffffffffffffffffffffffffffffffffffffffff021916908373ffffffffffffffffffffffffffffffffffffffff16021790555050565b6000600260003373ffffffffffffffffffffffffffffffffffffffff1673ffffffffffffffffffffffffffffffffffffffff16815260200190815260200160002080549050905090565b6000611783612c0b565b6117f5576040517f08c379a00000000000000000000000000000000000000000000000000000000081526004018080602001828103825260208152602001807f4f776e61626c653a2063616c6c6572206973206e6f7420746865206f776e657281525060200191505060405180910390fd5b6000600b805490509050600080905060008090505b82811015611896576000600b828154811061182157fe5b9060005260206000200160009054906101000a900473ffffffffffffffffffffffffffffffffffffffff16905061186961185a82612e91565b846144e990919063ffffffff16565b9250611886611877826145f6565b846144e990919063ffffffff16565b925050808060010191505061180a565b50809250505090565b6060600960003373ffffffffffffffffffffffffffffffffffffffff1673ffffffffffffffffffffffffffffffffffffffff1681526020019081526020016000205090565b6000600180600082825401925050819055506000600154905061190561518c565b600260003373ffffffffffffffffffffffffffffffffffffffff1673ffffffffffffffffffffffffffffffffffffffff168152602001908152602001600020848154811061194f57fe5b906000526020600020906004020160405180608001604052908160008201548152602001600182015481526020016002820160009054906101000a900460ff161515151581526020016003820154815250509050600015158160400151151514611a21576040517f08c379a000000000000000000000000000000000000000000000000000000000815260040180806020018281038252601b8152602001807f5374616b65207765726520616c72656164792072657475726e6564000000000081525060200191505060405180910390fd5b6000816000015190506000611a358261446a565b90506000611a4c828461449f90919063ffffffff16565b90506000611a63828561449f90919063ffffffff16565b9050611a6e81614571565b611ae0576040517f08c379a000000000000000000000000000000000000000000000000000000000815260040180806020018281038252600d8152602001807f4c696d697420726561636865640000000000000000000000000000000000000081525060200191505060405180910390fd5b6001600260003373ffffffffffffffffffffffffffffffffffffffff1673ffffffffffffffffffffffffffffffffffffffff1681526020019081526020016000208981548110611b2c57fe5b906000526020600020906004020160020160006101000a81548160ff021916908315150217905550600460009054906101000a900473ffffffffffffffffffffffffffffffffffffffff1673ffffffffffffffffffffffffffffffffffffffff1663a9059cbb33846040518363ffffffff1660e01b8152600401808373ffffffffffffffffffffffffffffffffffffffff1673ffffffffffffffffffffffffffffffffffffffff16815260200182815260200192505050602060405180830381600087803b158015611bfd57600080fd5b505af1158015611c11573d6000803e3d6000fd5b505050506040513d6020811015611c2757600080fd5b810190808051906020019092919050505015611c81577fa410544f83eadf8c1b5ed87c43259151da8c2dcaace26a8441a95e7770d7240a8883604051808381526020018281526020019250505060405180910390a1611cef565b6040517f08c379a00000000000000000000000000000000000000000000000000000000081526004018080602001828103825260188152602001807f556e61626c6520746f207472616e736665722066756e6473000000000000000081525060200191505060405180910390fd5b6001965050505050506001548114611d6f576040517f08c379a000000000000000000000000000000000000000000000000000000000815260040180806020018281038252601f8152602001807f5265656e7472616e637947756172643a207265656e7472616e742063616c6c0081525060200191505060405180910390fd5b50919050565b6000600960003373ffffffffffffffffffffffffffffffffffffffff1673ffffffffffffffffffffffffffffffffffffffff16815260200190815260200160002080549050905090565b6000611dc961518c565b600260008573ffffffffffffffffffffffffffffffffffffffff1673ffffffffffffffffffffffffffffffffffffffff1681526020019081526020016000208381548110611e1357fe5b906000526020600020906004020160405180608001604052908160008201548152602001600182015481526020016002820160009054906101000a900460ff16151515158152602001600382015481525050905060008160200151905060004290506000611e8a838361449f90919063ffffffff16565b90506000611ea2600a8361479490919063ffffffff16565b9050809550505050505092915050565b6060600960003373ffffffffffffffffffffffffffffffffffffffff1673ffffffffffffffffffffffffffffffffffffffff168152602001908152602001600020805480602002602001604051908101604052809291908181526020018280548015611f7357602002820191906000526020600020905b8160009054906101000a900473ffffffffffffffffffffffffffffffffffffffff1673ffffffffffffffffffffffffffffffffffffffff1681526020019060010190808311611f29575b5050505050905090565b6000611f876151b6565b600a60003373ffffffffffffffffffffffffffffffffffffffff1673ffffffffffffffffffffffffffffffffffffffff1681526020019081526020016000206040518060400160405290816000820160009054906101000a900473ffffffffffffffffffffffffffffffffffffffff1673ffffffffffffffffffffffffffffffffffffffff1673ffffffffffffffffffffffffffffffffffffffff1681526020016001820154815250509050600073ffffffffffffffffffffffffffffffffffffffff16816000015173ffffffffffffffffffffffffffffffffffffffff1614806120a25750600173ffffffffffffffffffffffffffffffffffffffff16816000015173ffffffffffffffffffffffffffffffffffffffff16145b156120bf5760008160200151146120b557fe5b60009150506120c5565b60019150505b90565b600080600260003373ffffffffffffffffffffffffffffffffffffffff1673ffffffffffffffffffffffffffffffffffffffff168152602001908152602001600020805490509050600080905060008090505b828110156121a457600260003373ffffffffffffffffffffffffffffffffffffffff1673ffffffffffffffffffffffffffffffffffffffff168152602001908152602001600020818154811061216d57fe5b906000526020600020906004020160020160009054906101000a900460ff16612197576001820191505b808060010191505061211b565b50809250505090565b600060018060008282540192505081905550600060015490506121ce61518c565b600260003373ffffffffffffffffffffffffffffffffffffffff1673ffffffffffffffffffffffffffffffffffffffff168152602001908152602001600020848154811061221857fe5b906000526020600020906004020160405180608001604052908160008201548152602001600182015481526020016002820160009054906101000a900460ff161515151581526020016003820154815250509050600061227785614075565b905061228281614571565b6122f4576040517f08c379a00000000000000000000000000000000000000000000000000000000081526004018080602001828103825260168152602001807f537570706c696564206c696d697420726561636865640000000000000000000081525060200191505060405180910390fd5b60055481111561236c576040517f08c379a000000000000000000000000000000000000000000000000000000000815260040180806020018281038252600d8152602001807f506f74206578686175737465640000000000000000000000000000000000000081525060200191505060405180910390fd5b6123818160055461449f90919063ffffffff16565b60058190555061239e8183606001516144e990919063ffffffff16565b600260003373ffffffffffffffffffffffffffffffffffffffff1673ffffffffffffffffffffffffffffffffffffffff16815260200190815260200160002086815481106123e857fe5b906000526020600020906004020160030181905550600460009054906101000a900473ffffffffffffffffffffffffffffffffffffffff1673ffffffffffffffffffffffffffffffffffffffff1663a9059cbb33836040518363ffffffff1660e01b8152600401808373ffffffffffffffffffffffffffffffffffffffff1673ffffffffffffffffffffffffffffffffffffffff16815260200182815260200192505050602060405180830381600087803b1580156124a657600080fd5b505af11580156124ba573d6000803e3d6000fd5b505050506040513d60208110156124d057600080fd5b81019080805190602001909291905050501561254e577fa4b06025edc86026e2c30cfa971a842c3c847db9729ad23b444e9c92ef5a26c833604051808273ffffffffffffffffffffffffffffffffffffffff1673ffffffffffffffffffffffffffffffffffffffff16815260200191505060405180910390a16125bc565b6040517f08c379a00000000000000000000000000000000000000000000000000000000081526004018080602001828103825260188152602001807f556e61626c6520746f207472616e736665722066756e6473000000000000000081525060200191505060405180910390fd5b6001935050506001548114612639576040517f08c379a000000000000000000000000000000000000000000000000000000000815260040180806020018281038252601f8152602001807f5265656e7472616e637947756172643a207265656e7472616e742063616c6c0081525060200191505060405180910390fd5b50919050565b6000806000600260008573ffffffffffffffffffffffffffffffffffffffff1673ffffffffffffffffffffffffffffffffffffffff16815260200190815260200160002080549050905060006012600a0a620186a00290506000809050600080905060008090505b848110156127f95783600260008a73ffffffffffffffffffffffffffffffffffffffff1673ffffffffffffffffffffffffffffffffffffffff16815260200190815260200160002082815481106126fa57fe5b90600052602060002090600402016000015410156127eb57600260008973ffffffffffffffffffffffffffffffffffffffff1673ffffffffffffffffffffffffffffffffffffffff168152602001908152602001600020818154811061275c57fe5b906000526020600020906004020160020160009054906101000a900460ff1615612785576127ec565b600260008973ffffffffffffffffffffffffffffffffffffffff1673ffffffffffffffffffffffffffffffffffffffff16815260200190815260200160002081815481106127cf57fe5b9060005260206000209060040201600001549350809250600191505b5b80806001019150506126a7565b5080612815576000808191508090509550955050505050612820565b828295509550505050505b915091565b61282d612c0b565b61289f576040517f08c379a00000000000000000000000000000000000000000000000000000000081526004018080602001828103825260208152602001807f4f776e61626c653a2063616c6c6572206973206e6f7420746865206f776e657281525060200191505060405180910390fd5b600073ffffffffffffffffffffffffffffffffffffffff166000809054906101000a900473ffffffffffffffffffffffffffffffffffffffff1673ffffffffffffffffffffffffffffffffffffffff167f8be0079c531659141344cd1fd0a4f28419497f9722a3daafe3b4186f6b6457e060405160405180910390a360008060006101000a81548173ffffffffffffffffffffffffffffffffffffffff021916908373ffffffffffffffffffffffffffffffffffffffff160217905550565b612966612c0b565b6129d8576040517f08c379a00000000000000000000000000000000000000000000000000000000081526004018080602001828103825260208152602001807f4f776e61626c653a2063616c6c6572206973206e6f7420746865206f776e657281525060200191505060405180910390fd5b600180600082825401925050819055506000600154905060006129f96147de565b9050600460009054906101000a900473ffffffffffffffffffffffffffffffffffffffff1673ffffffffffffffffffffffffffffffffffffffff1663a9059cbb612a41612be2565b836040518363ffffffff1660e01b8152600401808373ffffffffffffffffffffffffffffffffffffffff1673ffffffffffffffffffffffffffffffffffffffff16815260200182815260200192505050602060405180830381600087803b158015612aab57600080fd5b505af1158015612abf573d6000803e3d6000fd5b505050506040513d6020811015612ad557600080fd5b8101908080519060200190929190505050612b58576040517f08c379a00000000000000000000000000000000000000000000000000000000081526004018080602001828103825260188152602001807f556e61626c6520746f207472616e736665722066756e6473000000000000000081525060200191505060405180910390fd5b506001548114612bd0576040517f08c379a000000000000000000000000000000000000000000000000000000000815260040180806020018281038252601f8152602001807f5265656e7472616e637947756172643a207265656e7472616e742063616c6c0081525060200191505060405180910390fd5b50565b6000612bdd612be2565b905090565b60008060009054906101000a900473ffffffffffffffffffffffffffffffffffffffff16905090565b60008060009054906101000a900473ffffffffffffffffffffffffffffffffffffffff1673ffffffffffffffffffffffffffffffffffffffff16612c4d6148bf565b73ffffffffffffffffffffffffffffffffffffffff1614905090565b6000612c7361518c565b600260003373ffffffffffffffffffffffffffffffffffffffff1673ffffffffffffffffffffffffffffffffffffffff1681526020019081526020016000208381548110612cbd57fe5b906000526020600020906004020160405180608001604052908160008201548152602001600182015481526020016002820160009054906101000a900460ff1615151515815260200160038201548152505090506000612d1c84612d9f565b9050600082600001519050600081905060008090505b83811015612d88576000612d636064612d55600a866148c790919063ffffffff16565b61479490919063ffffffff16565b9050612d7881846144e990919063ffffffff16565b9250508080600101915050612d32565b5081811015612d9357fe5b80945050505050919050565b6000612da961518c565b600260003373ffffffffffffffffffffffffffffffffffffffff1673ffffffffffffffffffffffffffffffffffffffff1681526020019081526020016000208381548110612df357fe5b906000526020600020906004020160405180608001604052908160008201548152602001600182015481526020016002820160009054906101000a900460ff16151515158152602001600382015481525050905060008160200151905060004290506000612e6a838361449f90919063ffffffff16565b90506000612e82600a8361479490919063ffffffff16565b90508095505050505050919050565b600080600960008473ffffffffffffffffffffffffffffffffffffffff1673ffffffffffffffffffffffffffffffffffffffff168152602001908152602001600020805490509050600080905060008090505b82811015612f8a57612f7b612f6c600960008873ffffffffffffffffffffffffffffffffffffffff1673ffffffffffffffffffffffffffffffffffffffff1681526020019081526020016000208381548110612f3c57fe5b9060005260206000200160009054906101000a900473ffffffffffffffffffffffffffffffffffffffff166142e1565b836144e990919063ffffffff16565b91508080600101915050612ee4565b508092505050919050565b60006012600a0a610fa0026012600a0a611388020360065410612fbb5760009050612fc0565b600190505b90565b6060612fcd612c0b565b61303f576040517f08c379a00000000000000000000000000000000000000000000000000000000081526004018080602001828103825260208152602001807f4f776e61626c653a2063616c6c6572206973206e6f7420746865206f776e657281525060200191505060405180910390fd5b600b8054806020026020016040519081016040528092919081815260200182805480156130c157602002820191906000526020600020905b8160009054906101000a900473ffffffffffffffffffffffffffffffffffffffff1673ffffffffffffffffffffffffffffffffffffffff1681526020019060010190808311613077575b5050505050905090565b6001806000828254019250508190555060006001549050600073ffffffffffffffffffffffffffffffffffffffff16600360009054906101000a900473ffffffffffffffffffffffffffffffffffffffff1673ffffffffffffffffffffffffffffffffffffffff1614156131a7576040517f08c379a000000000000000000000000000000000000000000000000000000000815260040180806020018281038252600f8152602001807f4e6f20636f6e747261637420736574000000000000000000000000000000000081525060200191505060405180910390fd5b6012600a0a606402831015613207576040517f08c379a00000000000000000000000000000000000000000000000000000000081526004018080602001828103825260228152602001806152aa6022913960400191505060405180910390fd5b6012600a0a620186a002831115613269576040517f08c379a00000000000000000000000000000000000000000000000000000000081526004018080602001828103825260278152602001806152836027913960400191505060405180910390fd5b613271612f95565b156132e4576040517f08c379a00000000000000000000000000000000000000000000000000000000081526004018080602001828103825260128152602001807f537562736372697074696f6e20656e646564000000000000000000000000000081525060200191505060405180910390fd5b60003390506132f161518c565b848160000181815250506000816040019015159081151581525050428160200181815250506000816060018181525050600260008373ffffffffffffffffffffffffffffffffffffffff1673ffffffffffffffffffffffffffffffffffffffff1681526020019081526020016000208190806001815401808255809150509060018203906000526020600020906004020160009091929091909150600082015181600001556020820151816001015560408201518160020160006101000a81548160ff021916908315150217905550606082015181600301555050506133d5611f7d565b6133e3576133e28461494d565b5b600b3390806001815401808255809150509060018203906000526020600020016000909192909190916101000a81548173ffffffffffffffffffffffffffffffffffffffff021916908373ffffffffffffffffffffffffffffffffffffffff16021790555050600460009054906101000a900473ffffffffffffffffffffffffffffffffffffffff1673ffffffffffffffffffffffffffffffffffffffff166323b872dd3330886040518463ffffffff1660e01b8152600401808473ffffffffffffffffffffffffffffffffffffffff1673ffffffffffffffffffffffffffffffffffffffff1681526020018373ffffffffffffffffffffffffffffffffffffffff1673ffffffffffffffffffffffffffffffffffffffff1681526020018281526020019350505050602060405180830381600087803b15801561352657600080fd5b505af115801561353a573d6000803e3d6000fd5b505050506040513d602081101561355057600080fd5b8101908080519060200190929190505050156135d6577f1fb6e3d7cae02b590e0aeed7ed3fd02a558811be73cdea80d1b42a0970b8b81b8585604051808381526020018273ffffffffffffffffffffffffffffffffffffffff1673ffffffffffffffffffffffffffffffffffffffff1681526020019250505060405180910390a1613644565b6040517f08c379a00000000000000000000000000000000000000000000000000000000081526004018080602001828103825260188152602001807f556e61626c6520746f207472616e736665722066756e6473000000000000000081525060200191505060405180910390fd5b505060015481146136bd576040517f08c379a000000000000000000000000000000000000000000000000000000000815260040180806020018281038252601f8152602001807f5265656e7472616e637947756172643a207265656e7472616e742063616c6c0081525060200191505060405180910390fd5b505050565b60008073ffffffffffffffffffffffffffffffffffffffff16600360009054906101000a900473ffffffffffffffffffffffffffffffffffffffff1673ffffffffffffffffffffffffffffffffffffffff1614156137235760009050613728565b600190505b90565b600080600960003373ffffffffffffffffffffffffffffffffffffffff1673ffffffffffffffffffffffffffffffffffffffff168152602001908152602001600020805490509050600080905060008090505b8281101561382457613815613806600960003373ffffffffffffffffffffffffffffffffffffffff1673ffffffffffffffffffffffffffffffffffffffff16815260200190815260200160002083815481106137d657fe5b9060005260206000200160009054906101000a900473ffffffffffffffffffffffffffffffffffffffff166142e1565b836144e990919063ffffffff16565b9150808060010191505061377e565b50809250505090565b613835612c0b565b6138a7576040517f08c379a00000000000000000000000000000000000000000000000000000000081526004018080602001828103825260208152602001807f4f776e61626c653a2063616c6c6572206973206e6f7420746865206f776e657281525060200191505060405180910390fd5b6001806000828254019250508190555060006001549050600073ffffffffffffffffffffffffffffffffffffffff16600360009054906101000a900473ffffffffffffffffffffffffffffffffffffffff1673ffffffffffffffffffffffffffffffffffffffff161415613966576040517f08c379a00000000000000000000000000000000000000000000000000000000081526004018080602001828103825260238152602001806152cc6023913960400191505060405180910390fd5b600061397d8360055461449f90919063ffffffff16565b10156139f1576040517f08c379a00000000000000000000000000000000000000000000000000000000081526004018080602001828103825260108152602001807f4e6f7420656e6f75676820746f6b656e0000000000000000000000000000000081525060200191505060405180910390fd5b613a068260055461449f90919063ffffffff16565b600581905550600460009054906101000a900473ffffffffffffffffffffffffffffffffffffffff1673ffffffffffffffffffffffffffffffffffffffff1663a9059cbb33846040518363ffffffff1660e01b8152600401808373ffffffffffffffffffffffffffffffffffffffff1673ffffffffffffffffffffffffffffffffffffffff16815260200182815260200192505050602060405180830381600087803b158015613ab557600080fd5b505af1158015613ac9573d6000803e3d6000fd5b505050506040513d6020811015613adf57600080fd5b810190808051906020019092919050505015613b33577f2ba2169cd2502a6cc4fd55f87f2dcbceef588b593aa4fdc883d4fc62e65ed6a96005546040518082815260200191505060405180910390a1613ba1565b6040517f08c379a00000000000000000000000000000000000000000000000000000000081526004018080602001828103825260178152602001807f556e61626c6520746f207472616e6665722066756e647300000000000000000081525060200191505060405180910390fd5b6001548114613c18576040517f08c379a000000000000000000000000000000000000000000000000000000000815260040180806020018281038252601f8152602001807f5265656e7472616e637947756172643a207265656e7472616e742063616c6c0081525060200191505060405180910390fd5b5050565b613c24612c0b565b613c96576040517f08c379a00000000000000000000000000000000000000000000000000000000081526004018080602001828103825260208152602001807f4f776e61626c653a2063616c6c6572206973206e6f7420746865206f776e657281525060200191505060405180910390fd5b6001806000828254019250508190555060006001549050600073ffffffffffffffffffffffffffffffffffffffff16600360009054906101000a900473ffffffffffffffffffffffffffffffffffffffff1673ffffffffffffffffffffffffffffffffffffffff161415613d55576040517f08c379a00000000000000000000000000000000000000000000000000000000081526004018080602001828103825260238152602001806152cc6023913960400191505060405180910390fd5b613d6a826005546144e990919063ffffffff16565b600581905550600460009054906101000a900473ffffffffffffffffffffffffffffffffffffffff1673ffffffffffffffffffffffffffffffffffffffff166323b872dd3330856040518463ffffffff1660e01b8152600401808473ffffffffffffffffffffffffffffffffffffffff1673ffffffffffffffffffffffffffffffffffffffff1681526020018373ffffffffffffffffffffffffffffffffffffffff1673ffffffffffffffffffffffffffffffffffffffff1681526020018281526020019350505050602060405180830381600087803b158015613e4d57600080fd5b505af1158015613e61573d6000803e3d6000fd5b505050506040513d6020811015613e7757600080fd5b810190808051906020019092919050505015613ecb577f2ba2169cd2502a6cc4fd55f87f2dcbceef588b593aa4fdc883d4fc62e65ed6a96005546040518082815260200191505060405180910390a1613f39565b6040517f08c379a00000000000000000000000000000000000000000000000000000000081526004018080602001828103825260178152602001807f556e61626c6520746f207472616e6665722066756e647300000000000000000081525060200191505060405180910390fd5b6001548114613fb0576040517f08c379a000000000000000000000000000000000000000000000000000000000815260040180806020018281038252601f8152602001807f5265656e7472616e637947756172643a207265656e7472616e742063616c6c0081525060200191505060405180910390fd5b5050565b6000613fbe6151b6565b600a60003373ffffffffffffffffffffffffffffffffffffffff1673ffffffffffffffffffffffffffffffffffffffff1681526020019081526020016000206040518060400160405290816000820160009054906101000a900473ffffffffffffffffffffffffffffffffffffffff1673ffffffffffffffffffffffffffffffffffffffff1673ffffffffffffffffffffffffffffffffffffffff1681526020016001820154815250509050806000015191505090565b600061407f61518c565b600260003373ffffffffffffffffffffffffffffffffffffffff1673ffffffffffffffffffffffffffffffffffffffff16815260200190815260200160002083815481106140c957fe5b906000526020600020906004020160405180608001604052908160008201548152602001600182015481526020016002820160009054906101000a900460ff161515151581526020016003820154815250509050600081600001519050600082606001519050600061413a86612d9f565b905060006141656064614157600a876148c790919063ffffffff16565b61479490919063ffffffff16565b9050600061417c83836148c790919063ffffffff16565b90506000614193858361449f90919063ffffffff16565b905080975050505050505050919050565b6000600654905090565b6000600554905090565b60008073ffffffffffffffffffffffffffffffffffffffff16600360009054906101000a900473ffffffffffffffffffffffffffffffffffffffff1673ffffffffffffffffffffffffffffffffffffffff16141561427e576040517f08c379a000000000000000000000000000000000000000000000000000000000815260040180806020018281038252600f8152602001807f4e6f20636f6e747261637420736574000000000000000000000000000000000081525060200191505060405180910390fd5b600260003373ffffffffffffffffffffffffffffffffffffffff1673ffffffffffffffffffffffffffffffffffffffff16815260200190815260200160002082815481106142c857fe5b9060005260206000209060040201600001549050919050565b60008060006142ef8461263f565b80925081935050506000821480156143075750600081145b15614317576000925050506143df565b60006143238583611dbf565b90506000614360826143526064614344600a896148c790919063ffffffff16565b61479490919063ffffffff16565b6148c790919063ffffffff16565b90506000600a60008873ffffffffffffffffffffffffffffffffffffffff1673ffffffffffffffffffffffffffffffffffffffff1681526020019081526020016000206001015490508082116143be576000955050505050506143df565b60006143d3828461449f90919063ffffffff16565b90508096505050505050505b919050565b6143ec612c0b565b61445e576040517f08c379a00000000000000000000000000000000000000000000000000000000081526004018080602001828103825260208152602001807f4f776e61626c653a2063616c6c6572206973206e6f7420746865206f776e657281525060200191505060405180910390fd5b61446781614d17565b50565b6000806144816014846148c790919063ffffffff16565b905061449760648261479490919063ffffffff16565b915050919050565b60006144e183836040518060400160405280601e81526020017f536166654d6174683a207375627472616374696f6e206f766572666c6f770000815250614e5b565b905092915050565b600080828401905083811015614567576040517f08c379a000000000000000000000000000000000000000000000000000000000815260040180806020018281038252601b8152602001807f536166654d6174683a206164646974696f6e206f766572666c6f77000000000081525060200191505060405180910390fd5b8091505092915050565b600060065482111561458657600090506145a6565b61459b8260065461449f90919063ffffffff16565b600681905550600190505b919050565b60008060007fc5d2460186f7233c927e7db2dcc703c0e500b653ca82273b7bfad8045d85a47060001b9050833f91506000801b82141580156145ed5750808214155b92505050919050565b6000614600612c0b565b614672576040517f08c379a00000000000000000000000000000000000000000000000000000000081526004018080602001828103825260208152602001807f4f776e61626c653a2063616c6c6572206973206e6f7420746865206f776e657281525060200191505060405180910390fd5b6060600260008473ffffffffffffffffffffffffffffffffffffffff1673ffffffffffffffffffffffffffffffffffffffff168152602001908152602001600020805480602002602001604051908101604052809291908181526020016000905b8282101561473e578382906000526020600020906004020160405180608001604052908160008201548152602001600182015481526020016002820160009054906101000a900460ff16151515158152602001600382015481525050815260200190600101906146d3565b505050509050600081519050600080905060008090505b828110156147885761477961476a8783614f1b565b836144e990919063ffffffff16565b91508080600101915050614755565b50809350505050919050565b60006147d683836040518060400160405280601a81526020017f536166654d6174683a206469766973696f6e206279207a65726f0000000000008152506150c6565b905092915050565b6000600460009054906101000a900473ffffffffffffffffffffffffffffffffffffffff1673ffffffffffffffffffffffffffffffffffffffff166370a08231306040518263ffffffff1660e01b8152600401808273ffffffffffffffffffffffffffffffffffffffff1673ffffffffffffffffffffffffffffffffffffffff16815260200191505060206040518083038186803b15801561487f57600080fd5b505afa158015614893573d6000803e3d6000fd5b505050506040513d60208110156148a957600080fd5b8101908080519060200190929190505050905090565b600033905090565b6000808314156148da5760009050614947565b60008284029050828482816148eb57fe5b0414614942576040517f08c379a000000000000000000000000000000000000000000000000000000000815260040180806020018281038252602181526020018061523a6021913960400191505060405180910390fd5b809150505b92915050565b600073ffffffffffffffffffffffffffffffffffffffff168173ffffffffffffffffffffffffffffffffffffffff1614156149f0576040517f08c379a000000000000000000000000000000000000000000000000000000000815260040180806020018281038252600f8152602001807f496e76616c69642061646472657373000000000000000000000000000000000081525060200191505060405180910390fd5b6149f8611f7d565b15614a6b576040517f08c379a00000000000000000000000000000000000000000000000000000000081526004018080602001828103825260178152602001807f526566657272616c20616c72656164792073657474656400000000000000000081525060200191505060405180910390fd5b600173ffffffffffffffffffffffffffffffffffffffff168173ffffffffffffffffffffffffffffffffffffffff161415614aa557614d14565b3373ffffffffffffffffffffffffffffffffffffffff168173ffffffffffffffffffffffffffffffffffffffff161415614b2a576040517f08c379a000000000000000000000000000000000000000000000000000000000815260040180806020018281038252602d81526020018061520d602d913960400191505060405180910390fd5b600960008273ffffffffffffffffffffffffffffffffffffffff1673ffffffffffffffffffffffffffffffffffffffff1681526020019081526020016000203390806001815401808255809150509060018203906000526020600020016000909192909190916101000a81548173ffffffffffffffffffffffffffffffffffffffff021916908373ffffffffffffffffffffffffffffffffffffffff16021790555050614bd56151b6565b81816000019073ffffffffffffffffffffffffffffffffffffffff16908173ffffffffffffffffffffffffffffffffffffffff1681525050600081602001818152505080600a60003373ffffffffffffffffffffffffffffffffffffffff1673ffffffffffffffffffffffffffffffffffffffff16815260200190815260200160002060008201518160000160006101000a81548173ffffffffffffffffffffffffffffffffffffffff021916908373ffffffffffffffffffffffffffffffffffffffff16021790555060208201518160010155905050600b8290806001815401808255809150509060018203906000526020600020016000909192909190916101000a81548173ffffffffffffffffffffffffffffffffffffffff021916908373ffffffffffffffffffffffffffffffffffffffff16021790555050505b50565b600073ffffffffffffffffffffffffffffffffffffffff168173ffffffffffffffffffffffffffffffffffffffff161415614d9d576040517f08c379a00000000000000000000000000000000000000000000000000000000081526004018080602001828103825260268152602001806151e76026913960400191505060405180910390fd5b8073ffffffffffffffffffffffffffffffffffffffff166000809054906101000a900473ffffffffffffffffffffffffffffffffffffffff1673ffffffffffffffffffffffffffffffffffffffff167f8be0079c531659141344cd1fd0a4f28419497f9722a3daafe3b4186f6b6457e060405160405180910390a3806000806101000a81548173ffffffffffffffffffffffffffffffffffffffff021916908373ffffffffffffffffffffffffffffffffffffffff16021790555050565b6000838311158290614f08576040517f08c379a00000000000000000000000000000000000000000000000000000000081526004018080602001828103825283818151815260200191508051906020019080838360005b83811015614ecd578082015181840152602081019050614eb2565b50505050905090810190601f168015614efa5780820380516001836020036101000a031916815260200191505b509250505060405180910390fd5b5060008385039050809150509392505050565b6000614f25612c0b565b614f97576040517f08c379a00000000000000000000000000000000000000000000000000000000081526004018080602001828103825260208152602001807f4f776e61626c653a2063616c6c6572206973206e6f7420746865206f776e657281525060200191505060405180910390fd5b614f9f61518c565b600260008573ffffffffffffffffffffffffffffffffffffffff1673ffffffffffffffffffffffffffffffffffffffff1681526020019081526020016000208381548110614fe957fe5b906000526020600020906004020160405180608001604052908160008201548152602001600182015481526020016002820160009054906101000a900460ff161515151581526020016003820154815250509050600081600001519050600082606001519050600061505b8787611dbf565b905060006150866064615078600a876148c790919063ffffffff16565b61479490919063ffffffff16565b9050600061509d83836148c790919063ffffffff16565b905060006150b4858361449f90919063ffffffff16565b90508097505050505050505092915050565b60008083118290615172576040517f08c379a00000000000000000000000000000000000000000000000000000000081526004018080602001828103825283818151815260200191508051906020019080838360005b8381101561513757808201518184015260208101905061511c565b50505050905090810190601f1680156151645780820380516001836020036101000a031916815260200191505b509250505060405180910390fd5b50600083858161517e57fe5b049050809150509392505050565b60405180608001604052806000815260200160008152602001600015158152602001600081525090565b6040518060400160405280600073ffffffffffffffffffffffffffffffffffffffff16815260200160008152509056fe4f776e61626c653a206e6577206f776e657220697320746865207a65726f2061646472657373526566657272616c206973207468652073616d65206173207468652073656e6465722c20666f7262696464656e536166654d6174683a206d756c7469706c69636174696f6e206f766572666c6f77546865206164647265737320646f6573206e6f7420706f696e7420746f206120636f6e7472616374596f75206d757374207374616b65206174206d6178696d756d2031303030303020746f6b656e73596f75206d757374207374616b65206174206c656173742031303020746f6b656e7354686520546f6b656e20436f6e7472616374206973206e6f7420737065636966696564a165627a7a723058207676150b35c956f46a194d740a5f664af3a9201e3029f84432512f10eefa77b60029",
  "source": "pragma solidity >=0.5.0 <0.6.0;\n\nimport \"openzeppelin-solidity/contracts/token/ERC20/ERC20.sol\";\nimport \"openzeppelin-solidity/contracts/math/SafeMath.sol\";\nimport \"openzeppelin-solidity/contracts/ownership/Ownable.sol\";\nimport \"openzeppelin-solidity/contracts/utils/Address.sol\";\n\nimport \"openzeppelin-solidity/contracts/utils/ReentrancyGuard.sol\";\n\n\ncontract Staking is Ownable, ReentrancyGuard {\n    using SafeMath for uint;\n    using SafeMath for uint256;\n    using SafeMath for uint8;\n\n\n\n    struct Stake{\n        uint deposit_amount;        //Deposited Amount\n        uint stake_creation_time;   //The time when the stake was created\n        bool returned;              //Specifies if the funds were withdrawed\n        uint alreadyWithdrawedAmount;   //TODO Correct Lint\n    }\n\n\n    struct Account{\n        address referral;\n        uint referralAlreadyWithdrawed;\n    }\n\n\n    //---------------------------------------------------------------------\n    //-------------------------- EVENTS -----------------------------------\n    //---------------------------------------------------------------------\n\n\n    /**\n    *   @dev Emitted when the pot value changes\n     */\n    event PotUpdated(\n        uint newPot\n    );\n\n\n    /**\n    *   @dev Emitted when a customer tries to withdraw an amount\n    *       of token greater than the one in the pot\n     */\n    event PotExhausted(\n\n    );\n\n\n    /**\n    *   @dev Emitted when a new stake is issued\n     */\n    event NewStake(\n        uint stakeAmount,\n        address from\n    );\n\n    /**\n    *   @dev Emitted when a new stake is withdrawed\n     */\n    event StakeWithdraw(\n        uint stakeID,\n        uint amount\n    );\n\n    /**\n    *   @dev Emitted when a referral reward is sent\n     */\n    event referralRewardSent(\n        address account,\n        uint reward\n    );\n\n    event rewardWithdrawed(\n        address account\n    );\n\n\n    /**\n    *   @dev Emitted when the machine is stopped (500.000 tokens)\n     */\n    event machineStopped(\n    );\n\n    /**\n    *   @dev Emitted when the subscription is stopped (400.000 tokens)\n     */\n    event subscriptionStopped(\n    );\n\n\n\n    //--------------------------------------------------------------------\n    //-------------------------- GLOBALS -----------------------------------\n    //--------------------------------------------------------------------\n\n    mapping (address => Stake[]) private stake; /// @dev Map that contains account's stakes\n\n    address private tokenAddress;\n\n    ERC20 private ERC20Interface;\n\n    uint private pot;    //The pot where token are taken\n\n    uint256 private amount_supplied;    //Store the remaining token to be supplied\n\n    uint private pauseTime;     //Time when the machine paused\n    uint private stopTime;      //Time when the machine stopped\n\n\n\n\n    // @dev Mapping the referrals\n    mapping (address => address[]) private referral;    //Store account that used the referral\n\n    mapping (address => Account) private account_referral;  //Store the setted account referral\n\n\n    address[] private activeAccounts;   //Store both staker and referer address\n\n\n    uint256 private constant _DECIMALS = 18;\n\n    uint256 private constant _INTEREST_PERIOD = 10 seconds;//1 days * 30;    //One Month\n    uint256 private constant _INTEREST_VALUE = 10;    //10%\n\n    uint256 private constant _PENALTY_VALUE = 20;    //10%\n\n\n\n    uint256 private constant _MIN_STAKE_AMOUNT = 100 * (10**_DECIMALS);\n\n    uint256 private constant _MAX_STAKE_AMOUNT = 100000 * (10**_DECIMALS);\n\n    uint private constant _REFERALL_REWARD = 10;\n\n    uint256 private constant _MAX_TOKEN_SUPPLY_LIMIT = /*50000000*/ 5000 * (10**_DECIMALS);\n    uint256 private constant _MIDTERM_TOKEN_SUPPLY_LIMIT = /*40000000*/ 4000 * (10**_DECIMALS);\n\n\n    constructor() public {\n        pot = 0;\n        amount_supplied = _MAX_TOKEN_SUPPLY_LIMIT;    //The total amount of token released\n        tokenAddress = address(0);\n    }\n\n    //--------------------------------------------------------------------\n    //-------------------------- TOKEN ADDRESS -----------------------------------\n    //--------------------------------------------------------------------\n\n\n    function setTokenAddress(address _tokenAddress) external onlyOwner {\n        require(Address.isContract(_tokenAddress), \"The address does not point to a contract\");\n\n        tokenAddress = _tokenAddress;\n        ERC20Interface = ERC20(tokenAddress);\n    }\n\n    function isTokenSet() external view returns (bool) {\n        if(tokenAddress == address(0))\n            return false;\n        return true;\n    }\n\n    function getTokenAddress() external view returns (address){\n        return tokenAddress;\n    }\n\n    //--------------------------------------------------------------------\n    //-------------------------- ONLY OWNER -----------------------------------\n    //--------------------------------------------------------------------\n\n\n    function depositPot(uint _amount) external onlyOwner nonReentrant {\n        require(tokenAddress != address(0), \"The Token Contract is not specified\");\n\n        pot = pot.add(_amount);\n\n        if(ERC20Interface.transferFrom(msg.sender, address(this), _amount)){\n            //Emit the event to update the UI\n            emit PotUpdated(pot);\n        }else{\n            revert(\"Unable to tranfer funds\");\n        }\n\n\n    }\n\n\n    function returnPot(uint _amount) external onlyOwner nonReentrant{\n        require(tokenAddress != address(0), \"The Token Contract is not specified\");\n        require(pot.sub(_amount) >= 0, \"Not enough token\");\n\n        pot = pot.sub(_amount);\n\n        if(ERC20Interface.transfer(msg.sender, _amount)){\n            //Emit the event to update the UI\n            emit PotUpdated(pot);\n        }else{\n            revert(\"Unable to tranfer funds\");\n        }\n\n\n    }\n\n\n    function finalShutdown() external onlyOwner nonReentrant{\n\n        uint machineAmount = getMachineBalance();\n\n        if(!ERC20Interface.transfer(owner(), machineAmount)){\n            revert(\"Unable to transfer funds\");\n        }\n        //Goodbye\n    }\n\n    function getAllAccount() external onlyOwner view returns (address[] memory){\n        return activeAccounts;\n    }\n\n    /**\n    *   @dev Check if the pot has enough balance to satisfy the potential withdraw\n     */\n    function getPotentialWithdrawAmount() external onlyOwner view returns (uint){\n        uint accountNumber = activeAccounts.length;\n\n        uint potentialAmount = 0;\n\n        for(uint i = 0; i<accountNumber; i++){\n\n            address currentAccount = activeAccounts[i];\n\n            potentialAmount = potentialAmount.add(calculateTotalRewardReferral(currentAccount));    //Referral\n\n            potentialAmount = potentialAmount.add(calculateTotalRewardToWithdraw(currentAccount));  //Normal Reward\n        }\n\n        return potentialAmount;\n    }\n\n\n    //--------------------------------------------------------------------\n    //-------------------------- CLIENTS -----------------------------------\n    //--------------------------------------------------------------------\n\n    /**\n    *   @dev Stake token verifying all the contraint\n    *   @notice Stake tokens\n    *   @param _amount Amoun to stake\n    *   @param _referralAddress Address of the referer; 0x000...1 if no referer is provided\n     */\n    function stakeToken(uint _amount, address _referralAddress) external nonReentrant {\n\n        require(tokenAddress != address(0), \"No contract set\");\n\n        require(_amount >= _MIN_STAKE_AMOUNT, \"You must stake at least 100 tokens\");\n        require(_amount <= _MAX_STAKE_AMOUNT, \"You must stake at maximum 100000 tokens\");\n\n        require(!isSubscriptionEnded(), \"Subscription ended\");\n\n        address staker = msg.sender;\n        Stake memory newStake;\n\n        newStake.deposit_amount = _amount;\n        newStake.returned = false;\n        newStake.stake_creation_time = now;\n        newStake.alreadyWithdrawedAmount = 0;\n\n        stake[staker].push(newStake);\n\n        if(!hasReferral()){\n            setReferral(_referralAddress);\n        }\n\n        activeAccounts.push(msg.sender);\n\n        if(ERC20Interface.transferFrom(msg.sender, address(this), _amount)){\n            emit NewStake(_amount, _referralAddress);\n        }else{\n            revert(\"Unable to transfer funds\");\n        }\n\n\n    }\n\n    /**\n    *   @dev Return the staked tokens, requiring that the stake was\n    *        not alreay withdrawed\n    *   @notice Return staked token\n    *   @param _stakeID The ID of the stake to be returned\n     */\n    function returnTokens(uint _stakeID) external nonReentrant returns (bool){\n        Stake memory selectedStake = stake[msg.sender][_stakeID];\n\n        //Check if the stake were already withdraw\n        require(selectedStake.returned == false, \"Stake were already returned\");\n\n        uint deposited_amount = selectedStake.deposit_amount;\n        //Get the net reward\n        uint penalty = calculatePenalty(deposited_amount);\n\n        //Sum the net reward to the total reward to withdraw\n        uint total_amount = deposited_amount.sub(penalty);\n\n\n        //Update the supplied amount considering also the penalty\n        uint supplied = deposited_amount.sub(total_amount);\n        require(updateSuppliedToken(supplied), \"Limit reached\");\n\n\n        //Only set the withdraw flag in order to disable further withdraw\n        stake[msg.sender][_stakeID].returned = true;\n\n        if(ERC20Interface.transfer(msg.sender, total_amount)){\n            emit StakeWithdraw(_stakeID, total_amount);\n        }else{\n            revert(\"Unable to transfer funds\");\n        }\n\n\n        return true;\n    }\n\n\n    function withdrawReward(uint _stakeID) external nonReentrant returns (bool){\n        Stake memory _stake = stake[msg.sender][_stakeID];\n\n        uint rewardToWithdraw = calculateRewardToWithdraw(_stakeID);\n\n        require(updateSuppliedToken(rewardToWithdraw), \"Supplied limit reached\");\n\n        if(rewardToWithdraw > pot){\n            revert(\"Pot exhausted\");\n        }\n\n        pot = pot.sub(rewardToWithdraw);\n\n        stake[msg.sender][_stakeID].alreadyWithdrawedAmount = _stake.alreadyWithdrawedAmount.add(rewardToWithdraw);\n\n        if(ERC20Interface.transfer(msg.sender, rewardToWithdraw)){\n            emit rewardWithdrawed(msg.sender);\n        }else{\n            revert(\"Unable to transfer funds\");\n        }\n\n        return true;\n    }\n\n\n    function withdrawReferralReward() external nonReentrant returns (bool){\n        uint referralCount = referral[msg.sender].length;\n\n        uint totalAmount = 0;\n\n        for(uint i = 0; i<referralCount; i++){\n            address currentAccount = referral[msg.sender][i];\n            uint currentReward = calculateRewardReferral(currentAccount);\n\n            totalAmount = totalAmount.add(currentReward);\n\n            //Update the alreadyWithdrawed status\n            account_referral[currentAccount].referralAlreadyWithdrawed = account_referral[currentAccount].referralAlreadyWithdrawed.add(currentReward);\n        }\n\n        require(updateSuppliedToken(totalAmount), \"Machine limit reached\");\n\n        //require(withdrawFromPot(totalAmount), \"Pot exhausted\");\n\n        if(totalAmount > pot){\n            revert(\"Pot exhausted\");\n        }\n\n        pot = pot.sub(totalAmount);\n\n\n        if(ERC20Interface.transfer(msg.sender, totalAmount)){\n            emit referralRewardSent(msg.sender, totalAmount);\n        }else{\n            revert(\"Unable to transfer funds\");\n        }\n\n\n        return true;\n    }\n\n    /**\n    *   @dev Check if the provided amount is available in the pot\n    *   If yes, it will update the pot value and return true\n    *   Otherwise it will emit a PotExhausted event and return false\n     */\n    function withdrawFromPot(uint _amount) public nonReentrant returns (bool){\n\n        if(_amount > pot){\n            emit PotExhausted();\n            return false;\n        }\n\n        //Update the pot value\n\n        pot = pot.sub(_amount);\n        return true;\n\n    }\n\n\n    //--------------------------------------------------------------------\n    //-------------------------- VIEWS -----------------------------------\n    //--------------------------------------------------------------------\n\n    /**\n    * @dev Return the amount of token in the provided caller's stake\n    * @param _stakeID The ID of the stake of the caller\n     */\n    function getCurrentStakeAmount(uint _stakeID) external view returns (uint256)  {\n        require(tokenAddress != address(0), \"No contract set\");\n\n        return stake[msg.sender][_stakeID].deposit_amount;\n    }\n\n    /**\n    * @dev Return sum of all the caller's stake amount\n    * @return Amount of stake\n     */\n    function getTotalStakeAmount() external view returns (uint256) {\n        require(tokenAddress != address(0), \"No contract set\");\n\n        Stake[] memory currentStake = stake[msg.sender];\n        uint nummberOfStake = stake[msg.sender].length;\n        uint totalStake = 0;\n        uint tmp;\n        for (uint i = 0; i<nummberOfStake; i++){\n            tmp = currentStake[i].deposit_amount;\n            totalStake = totalStake.add(tmp);\n        }\n\n        return totalStake;\n    }\n\n    /**\n    *   @dev Return all the available stake info\n    *   @notice Return stake info\n    *   @param _stakeID ID of the stake which info is returned\n    *\n    *   @return 1) Amount Deposited\n    *   @return 2) Bool value that tells if the stake was withdrawed\n    *   @return 3) Stake creation time (Unix timestamp)\n    *   @return 4) The eventual referAccountess != address(0), \"No contract set\");\n    *   @return 5) The current amount\n    *   @return 6) The penalty of withdraw\n    */\n    function getStakeInfo(uint _stakeID) external view returns(uint, bool, uint, address, uint, uint){\n\n        Stake memory selectedStake = stake[msg.sender][_stakeID];\n\n        uint amountToWithdraw = calculateRewardToWithdraw(_stakeID);\n\n        uint penalty = calculatePenalty(selectedStake.deposit_amount);\n\n        address myReferral = getMyReferral();\n\n        return (\n            selectedStake.deposit_amount,\n            selectedStake.returned,\n            selectedStake.stake_creation_time,\n            myReferral,\n            amountToWithdraw,\n            penalty\n        );\n    }\n\n\n    /**\n    *  @dev Get the current pot value\n    *  @return The amount of token in the current pot\n     */\n    function getCurrentPot() external view returns (uint){\n        return pot;\n    }\n\n    /**\n    * @dev Get the number of active stake of the caller\n    * @return Number of active stake\n     */\n    function getStakeCount() external view returns (uint){\n        return stake[msg.sender].length;\n    }\n\n\n    function getActiveStakeCount() external view returns(uint){\n        uint stakeCount = stake[msg.sender].length;\n\n        uint count = 0;\n\n        for(uint i = 0; i<stakeCount; i++){\n            if(!stake[msg.sender][i].returned){\n                count = count + 1;\n            }\n        }\n        return count;\n    }\n\n\n    function getReferralCount() external view returns (uint) {\n        return referral[msg.sender].length;\n    }\n\n    function getAccountReferral() external view returns (address[] memory){\n        referral[msg.sender];\n    }\n\n    function getAlreadyWithdrawedAmount(uint _stakeID) external view returns (uint){\n        return stake[msg.sender][_stakeID].alreadyWithdrawedAmount;\n    }\n\n\n    //--------------------------------------------------------------------\n    //-------------------------- REFERRALS -----------------------------------\n    //--------------------------------------------------------------------\n\n\n    function hasReferral() public view returns (bool){\n\n        Account memory myAccount = account_referral[msg.sender];\n\n        if(myAccount.referral == address(0) || myAccount.referral == address(0x0000000000000000000000000000000000000001)){\n            //If I have no referral...\n            assert(myAccount.referralAlreadyWithdrawed == 0);\n            return false;\n        }\n\n        return true;\n    }\n\n\n    function getMyReferral() public view returns (address){\n        Account memory myAccount = account_referral[msg.sender];\n\n        return myAccount.referral;\n    }\n\n\n    function setReferral(address referer) internal {\n        require(referer != address(0), \"Invalid address\");\n        require(!hasReferral(), \"Referral already setted\");\n\n        if(referer == address(0x0000000000000000000000000000000000000001)){\n            return;   //This means no referer\n        }\n\n        if(referer == msg.sender){\n            revert(\"Referral is the same as the sender, forbidden\");\n        }\n\n        referral[referer].push(msg.sender);\n\n        Account memory account;\n\n        account.referral = referer;\n        account.referralAlreadyWithdrawed = 0;\n\n        account_referral[msg.sender] = account;\n\n        activeAccounts.push(referer);    //Add to the list of active account for pot calculation\n    }\n\n\n    function getCurrentReferrals() external view returns (address[] memory){\n        return referral[msg.sender];\n    }\n\n\n    /**\n    *   @dev Calculate the current referral reward of the specified customer\n    *   @return The amount of referral reward related to the given customer\n     */\n    function calculateRewardReferral(address customer) public view returns (uint){\n\n        uint lowestStake;\n        uint lowStakeID;\n        (lowestStake, lowStakeID) = getLowestStake(customer);\n\n        if(lowestStake == 0 && lowStakeID == 0){\n            return 0;\n        }\n\n        uint periods = calculateAccountStakePeriods(customer, lowStakeID);\n\n        uint currentReward = lowestStake.mul(_REFERALL_REWARD).div(100).mul(periods);\n\n        uint alreadyWithdrawed = account_referral[customer].referralAlreadyWithdrawed;\n\n\n        if(currentReward <= alreadyWithdrawed){\n            return 0;   //Already withdrawed all the in the past\n        }\n\n\n        uint availableReward = currentReward.sub(alreadyWithdrawed);\n\n        return availableReward;\n    }\n\n\n    function calculateTotalRewardReferral() external view returns (uint){\n\n        uint referralCount = referral[msg.sender].length;\n\n        uint totalAmount = 0;\n\n        for(uint i = 0; i<referralCount; i++){\n            totalAmount = totalAmount.add(calculateRewardReferral(referral[msg.sender][i]));\n        }\n\n        return totalAmount;\n    }\n\n    function calculateTotalRewardReferral(address _account) public view returns (uint){\n\n        uint referralCount = referral[_account].length;\n\n        uint totalAmount = 0;\n\n        for(uint i = 0; i<referralCount; i++){\n            totalAmount = totalAmount.add(calculateRewardReferral(referral[_account][i]));\n        }\n\n        return totalAmount;\n    }\n\n    /**\n     * @dev Returns the lowest stake info of the current account\n     * @param customer Customer where the lowest stake is returned\n     * @return uint The stake amount\n     * @return uint The stake ID\n     */\n    function getLowestStake(address customer) public view returns (uint, uint){\n        uint stakeNumber = stake[customer].length;\n        uint min = _MAX_STAKE_AMOUNT;\n        uint minID = 0;\n        bool foundFlag = false;\n\n        for(uint i = 0; i<stakeNumber; i++){\n            if(stake[customer][i].deposit_amount < min/* && !stake[customer][i].returned*/){\n                if(stake[customer][i].returned){\n                    continue;\n                }\n                min = stake[customer][i].deposit_amount;\n                minID = i;\n                foundFlag = true;\n            }\n        }\n\n\n        if(!foundFlag){\n            return (0, 0);\n        }else{\n            return (min, minID);\n        }\n\n    }\n\n\n\n    //--------------------------------------------------------------------\n    //-------------------------- INTERNAL -----------------------------------\n    //--------------------------------------------------------------------\n\n    /**\n     * @dev Calculate the customer reward based on the provided stake\n     * param uint _stakeID The stake where the reward should be calculated\n     * @return The reward value\n     */\n    function calculateRewardToWithdraw(uint _stakeID) public view returns (uint){\n        Stake memory _stake = stake[msg.sender][_stakeID];\n\n        uint amount_staked = _stake.deposit_amount;\n        uint already_withdrawed = _stake.alreadyWithdrawedAmount;\n\n        uint periods = calculatePeriods(_stakeID);  //Periods for interest calculation\n\n        uint interest = amount_staked.mul(_INTEREST_VALUE).div(100);\n\n        uint total_interest = interest.mul(periods);\n\n        uint reward = total_interest.sub(already_withdrawed); //Subtract the already withdrawed amount\n\n        return reward;\n    }\n\n    function calculateRewardToWithdraw(address _account, uint _stakeID) internal view onlyOwner returns (uint){\n        Stake memory _stake = stake[_account][_stakeID];\n\n        uint amount_staked = _stake.deposit_amount;\n        uint already_withdrawed = _stake.alreadyWithdrawedAmount;\n\n        uint periods = calculateAccountStakePeriods(_account, _stakeID);  //Periods for interest calculation\n\n        uint interest = amount_staked.mul(_INTEREST_VALUE).div(100);\n\n        uint total_interest = interest.mul(periods);\n\n        uint reward = total_interest.sub(already_withdrawed); //Subtract the already withdrawed amount\n\n        return reward;\n    }\n\n    function calculateTotalRewardToWithdraw(address _account) internal view onlyOwner returns (uint){\n        Stake[] memory accountStakes = stake[_account];\n\n        uint stakeNumber = accountStakes.length;\n        uint amount = 0;\n\n        for( uint i = 0; i<stakeNumber; i++){\n            amount = amount.add(calculateRewardToWithdraw(_account, i));\n        }\n\n        return amount;\n    }\n\n    function calculateCompoundInterest(uint _stakeID) external view returns (uint256){\n\n        Stake memory _stake = stake[msg.sender][_stakeID];\n\n        uint256 periods = calculatePeriods(_stakeID);\n        uint256 amount_staked = _stake.deposit_amount;\n\n        uint256 excepted_amount = amount_staked;\n\n        //Calculate reward\n        for(uint i = 0; i < periods; i++){\n\n            uint256 period_interest;\n\n            period_interest = excepted_amount.mul(_INTEREST_VALUE).div(100);\n\n            excepted_amount = excepted_amount.add(period_interest);\n        }\n\n        assert(excepted_amount >= amount_staked);\n\n        return excepted_amount;\n    }\n\n    function calculatePeriods(uint _stakeID) public view returns (uint){\n        Stake memory _stake = stake[msg.sender][_stakeID];\n\n\n        uint creation_time = _stake.stake_creation_time;\n        uint current_time = now;\n\n        uint total_period = current_time.sub(creation_time);\n\n        uint periods = total_period.div(_INTEREST_PERIOD);\n\n        return periods;\n    }\n\n    function calculateAccountStakePeriods(address _account, uint _stakeID) public view returns (uint){\n        Stake memory _stake = stake[_account][_stakeID];\n\n\n        uint creation_time = _stake.stake_creation_time;\n        uint current_time = now;\n\n        uint total_period = current_time.sub(creation_time);\n\n        uint periods = total_period.div(_INTEREST_PERIOD);\n\n        return periods;\n    }\n\n    function calculatePenalty(uint _amountStaked) private pure returns (uint){\n        uint tmp_penalty = _amountStaked.mul(_PENALTY_VALUE);   //Take the 10 percent\n        return tmp_penalty.div(100);\n    }\n\n    function updateSuppliedToken(uint _amount) internal returns (bool){\n        \n        if(_amount > amount_supplied){\n            return false;\n        }\n        \n        amount_supplied = amount_supplied.sub(_amount);\n        return true;\n    }\n\n    function checkPotBalance(uint _amount) internal view returns (bool){\n        if(pot >= _amount){\n            return true;\n        }\n        return false;\n    }\n\n\n\n    function getMachineBalance() internal view returns (uint){\n        return ERC20Interface.balanceOf(address(this));\n    }\n\n    function getMachineState() external view returns (uint){\n        return amount_supplied;\n    }\n\n    function isSubscriptionEnded() public view returns (bool){\n        if(amount_supplied >= _MAX_TOKEN_SUPPLY_LIMIT - _MIDTERM_TOKEN_SUPPLY_LIMIT){\n            return false;\n        }else{\n            return true;\n        }\n    }\n\n    function isMachineStopped() public view returns (bool){\n        if(amount_supplied > 0){\n            return true;\n        }else{\n            return false;\n        }\n    }\n\n    //--------------------------------------------------------------\n    //------------------------ DEBUG -------------------------------\n    //--------------------------------------------------------------\n\n    function getOwner() external view returns (address){\n        return owner();\n    }\n\n}",
  "sourcePath": "/home/gr3yc4t/projects/ERC20-staking-machine/ERC20-Staking-Machine/contracts/Staking.sol",
  "compiler": {
    "name": "solc",
    "version": "0.5.8+commit.23d335f2.Emscripten.clang"
  },
  "schemaVersion": "3.0.16",
  "updatedAt": "2020-01-02T12:07:27.662Z",
  "devdoc": {
    "methods": {
      "calculateRewardReferral(address)": {
        "details": "Calculate the current referral reward of the specified customer",
        "return": "The amount of referral reward related to the given customer"
      },
      "calculateRewardToWithdraw(uint256)": {
        "details": "Calculate the customer reward based on the provided stake param uint _stakeID The stake where the reward should be calculated",
        "return": "The reward value"
      },
      "getCurrentPot()": {
        "details": "Get the current pot value",
        "return": "The amount of token in the current pot"
      },
      "getCurrentStakeAmount(uint256)": {
        "details": "Return the amount of token in the provided caller's stake",
        "params": {
          "_stakeID": "The ID of the stake of the caller"
        }
      },
      "getLowestStake(address)": {
        "details": "Returns the lowest stake info of the current account",
        "params": {
          "customer": "Customer where the lowest stake is returned"
        },
        "return": "uint The stake amountuint The stake ID"
      },
      "getPotentialWithdrawAmount()": {
        "details": "Check if the pot has enough balance to satisfy the potential withdraw"
      },
      "getStakeCount()": {
        "details": "Get the number of active stake of the caller",
        "return": "Number of active stake"
      },
      "getStakeInfo(uint256)": {
        "details": "Return all the available stake info",
        "params": {
          "_stakeID": "ID of the stake which info is returned"
        },
        "return": "1) Amount Deposited2) Bool value that tells if the stake was withdrawed3) Stake creation time (Unix timestamp)4) The eventual referAccountess != address(0), \"No contract set\");5) The current amount6) The penalty of withdraw"
      },
      "getTotalStakeAmount()": {
        "details": "Return sum of all the caller's stake amount",
        "return": "Amount of stake"
      },
      "isOwner()": {
        "details": "Returns true if the caller is the current owner."
      },
      "owner()": {
        "details": "Returns the address of the current owner."
      },
      "renounceOwnership()": {
        "details": "Leaves the contract without owner. It will not be possible to call `onlyOwner` functions anymore. Can only be called by the current owner.     * NOTE: Renouncing ownership will leave the contract without an owner, thereby removing any functionality that is only available to the owner."
      },
      "returnTokens(uint256)": {
        "details": "Return the staked tokens, requiring that the stake was       not alreay withdrawed",
        "params": {
          "_stakeID": "The ID of the stake to be returned"
        }
      },
      "stakeToken(uint256,address)": {
        "details": "Stake token verifying all the contraint",
        "params": {
          "_amount": "Amoun to stake",
          "_referralAddress": "Address of the referer; 0x000...1 if no referer is provided"
        }
      },
      "transferOwnership(address)": {
        "details": "Transfers ownership of the contract to a new account (`newOwner`). Can only be called by the current owner."
      },
      "withdrawFromPot(uint256)": {
        "details": "Check if the provided amount is available in the pot  If yes, it will update the pot value and return true  Otherwise it will emit a PotExhausted event and return false"
      }
    }
  },
  "userdoc": {
    "methods": {
      "getStakeInfo(uint256)": {
        "notice": "Return stake info"
      },
      "returnTokens(uint256)": {
        "notice": "Return staked token"
      },
      "stakeToken(uint256,address)": {
        "notice": "Stake tokens"
      }
    }
  }
}